:020000040000FA
:2000000000500020E9000000E1000000C9000000E5000000E5000000E5000000000000002E
:20002000000000000000000000000000E5000000E500000000000000E5000000E50000002C
:20004000B11C0000E500000029250000E5000000B113000055190000E5000000E5000000BF
:20006000E50000007D250000E5000000E5000000E5000000E5000000E5000000E50000009B
:20008000E5000000E5000000E5000000E5000000E5000000E5000000E5000000E500000038
:2000A000E5000000E5000000E5000000E5000000E5000000E5000000E5000000E500000018
:2000C000E5000000C5270000044B1A68B2F5806F03D01B689B0500D4FEE7704728ED00E08D
:2000E000FEE700BFFEE700BF08B506F0C1FD104A104B9A420DD2D0430F4918440B4620F0AF
:2001000003000430084453F8041B834242F8041BF9D10A480A494FF000028842B8BF40F8AB
:20012000042BFADB03F00CFCFFF7CEFF08BD00BF00000020ED0900205C8D0100F009002040
:20014000E2330020F0B5002706463C463D4683B0304604F0A5FB0195019B9C4206DD00BF5E
:20016000019B01330193019B9C42F8DC304604F0BDFB0195019BC4F5C874A34206DA00BF00
:20018000019B01330193019BA342F8DB0137B7F5487F06D0B7F5C87FCCBFC7F548743C46AE
:2001A000D6E703B0F0BD00BF38B5194D194C2B6820465B68012198472B6801210A461B6866
:2001C0002046984706F086FF01F0C8FD01F04AFD00F0DCF804F0E0FB04F0AEFB0120FFF72A
:2001E000B1FF0D490D4A0E4809680123136003600B691020A2F5FF521268984706F06EFF99
:2002000001F048F8BDE838400220FFF79BBF00BFD801001000400340B00100100C4009409D
:200220000800094008B541F2342002F0E1F901F02BFB04F023FB074801F04EFB0648082134
:2002400001F0F2F904F03AFABDE808400420FFF779BF00BF29480000242C0020F0B585B0E1
:20026000002602A80821294C0096019601F0DCF99DF80F309DF80E70E56A43EA072748F252
:20028000A5110220A84739460320A84731460120A847636B02A908221D4D0B209847A46A5A
:2002A00001206946A0472B68022B1ADC022001A9A04778B92B68022B08DC0021154804F0D7
:2002C00043F80820FFF73EFF05B0F0BD1248019908F04CF82B68022BEFDD104808F046F8DC
:2002E000EBE70F490F4A104808F040F80F4808F03DF82B68022BD9DD09490A4A0A4808F009
:2003000035F800990A4808F031F8CFE7F4440100600700205808002090440100C87101009F
:200320004C440100544401003C440100644401008044010001F042BB10B50A4C1A202368D6
:20034000DB6B9847084A23684FF0806111609B6B17209847236817209B694FF4C041BDE83F
:2003600010401847B4010010A020024010B5064C042023685B699847236804205B6B98474A
:200380000128F9D110BD00BFB801001070B506F0A1FE0646FFF7EAFF124B4FF4A0601B680D
:2003A000DB699847104B0121104A196013689B07FCD50F4D0F4801F049FC2B680D20DB6BED
:2003C0000D4C98472B684FF400522260DB6B142098474FF48013236006B170BDBDE8704050
:2003E00006F07CBEB80100102820086028200840B4010010D8050020A02002400120704728
:2004000010B503210820002207F0D0F9044B00221A6007F029FA044607F088F9204610BDEF
:200420001C900C40802838B51CD0812818D10C46194D1A202B68DB6B98472B6817201B68BA
:2004400000214FF4C04298472B6817209B6B98477CB9124B4FF080621A60114801F0B0F889
:20046000012038BD0C4B1A201B68DB6B9847012038BD0C4B4FF080621A60094801F04AF8A1
:20048000094B0921586C06F0A9FA4FF4FA6000F0B7FE012038BD00BFB4010010A0200240A3
:2004A000EC05002090200240480000100120704708B501F0F9FC30B1034B5888A0F10200C4
:2004C000B0FA80F0400908BDF405002008B501F0EBFC30B1044B5B88022B0CBF01200220F8
:2004E00008BD022008BD00BFF405002030B583B001F040FF044601F0D7FC08B903B030BDC1
:200500000E4801A901F0D8FC0128F7D100F0C0FE638803F44063002BF0D16FF03F052D1A1C
:2005200006E000F0D1FF638803F44063002BE5D100F0AEFEE842F4D4E0E700BF0100010495
:2005400070B582B001F0B0FC234C10BB00256580E37B214E23F01003E373E37B304643F013
:200560002003E373E37B01A943F04003E373E37B63F07F03E373A37F5BB2C3F5FF63073322
:200580009BB2238301F098FC012809D0284602B070BD6388022B08BF0120D7D102B070BD0D
:2005A00000F076FE73889BB2022B0DD06FF03F052D1A05E000F088FF63889BB2022B03D007
:2005C00000F066FEE842F5D4608880B2A0F10200B0FA80F04009E1E7F405002008B50346DD
:2005E000B32994BF0A46B4220248194613F074FB002008BD720C002070B50E4D0E4E2C6898
:20060000002006E02379022B06D024682B68A3420ED02379032BF5D133780120002BF4D107
:20062000064803F0B1FE24682B680120A342F0D170BD00BF240A0020D12B00201007002057
:2006400038B50D4A0024136819681C725C721C71116002F0F3F80546BFF35F8F074B1A7830
:2006600012B11C70FFF76CFFBFF35F8F2846BDE8384002F0EBB800BF2C0A0020D02B0020DA
:200680002DE9F0432E4B83B080460F461D6800F0FFFD2C4E361A03E000F0FAFDC6420AD55E
:2006A0002C79022CF8D0284B0020032C187008D003B0BDE8F0832C79234B0020032C1870C8
:2006C000F6D1B5F80890B9F1060F27DDA9F10606BE4223DC0A3540462946324613F0FCFA01
:2006E000DFF87480AA5DAB1988F800205B79A9F10501164F0422294401A83B7013F0ECFA1B
:20070000019801F0C1FE124B124A1B7810605BB1FFF796FF304603B0BDE8F083FFF790FF77
:20072000002003B0BDE8F08398F80010042049B289B204F0D9FE3978204604F0D5FEE7E75D
:200740002C0A0020E2FAFFFFCE2B0020D22B0020D12B00206C0D0020EB0900200C2801D065
:2007600001207047042A01D0022070470029FBD0024B00201B680B60704700BF6C0D00206B
:2007800070B582B001F090FB002837D01D4C6388022B33D11C4E00F07BFD7388022B0BD1FC
:2007A0001A4D2D1A04E000F08FFE7388022B03D100F06EFDE842F6D401A9154801F07CFB70
:2007C00000F066FD6FF03F052D1A08E06388022B09D100F05DFDC54205D500F075FE01F083
:2007E00063FB0028F2D16088A0F55050043880B201288CBF0020012002B070BD012002B0BE
:2008000070BD00BFF40500206406002000FEFFFF0100010410B5114B114C1A680521237E80
:2008200084F82410928882B003F0F80343F00803204601A96283237601F03EFB012802D0DD
:20084000002002B010BD204601F088FBA0F10100B0FA80F0400902B010BD00BFF8060020CE
:200860003C06002000B583B00A4801A901F024FB012803D0002003B05DF804FB054801F0C1
:200880006DFBA0F10100B0FA80F0400903B05DF804FB00BF2406002008B5FFF7BBFF012855
:2008A00001D0002008BDFFF7DDFF0128F9D1FFF747FEC0B208BD00BF08B501F08DFE01282A
:2008C00012D0FFF75DFF01F043FC002210460749074B4A8003F510711A799033022A08BF0E
:2008E00003F88C0C8B42F7D1012008BDF4050020300A00202DE9F84F01F06EFE012818D0AC
:2009000001F0D2FA88B901F055FA01F0CDFA0446002840F08E8001F039FB012805460BD0BD
:2009200001F016FC0020BDE8F88F574B5B88022BE9D10120BDE8F88F01F084FC53494FF45F
:200940002372534813F0C8F9DFF88CB15148DFF88C91DFF88CC1504F504E5149514B524ACF
:2009600004704FF0020A8BF800504FF003084FF0040E052406204D4D89F800A08CF800803C
:2009800087F800E0347008701A602B684749002BFBD00020464A474BDFF84881086052F8B5
:2009A0001CCC52F818EC52F8146C52F8105C52F80C4C52F8207C12E90300203343F8207CD1
:2009C00043F81CCC43F818EC43F8146C43F8105C43F80C4C43F8080C43F8041C434502F19B
:2009E0002002DCD1344B354ADFF8FCC0DFF8FCE0334934482D4C344F344E00251862C3F814
:200A000024C00120C3F828E0DF621E632560116006F098F82E4805F0F9FF2246136823491E
:200A2000002BFBD000230B6001F016FB01287FF477AF01F035FC2748002103460E460225F8
:200A400088245A791E7102F0FC0265F383025A71DC80903343509031B1F5107F1D4AF0D120
:200A6000C2F8B02101F0BEF9FFF7D4FE012802D00020BDE8F88FFFF7F5FE0128F8D1BDE8B4
:200A8000F84FFFF75DBD00BFF4050020F04B01001C04002190030021AE030021AB03002155
:200AA00081030021C0030021BD0500211C1004405C45010000C0002180C60021001004401C
:200AC00001010E046039536311161216546B00703C060020300A0020790300217503002143
:200AE00077030021A0C600212010101A136F236E70B582B0072800F2AC80DFE800F0212AC1
:200B0000AAAA5E6B70045E4B197001F0CDF900285DD05C4B5B88022B59D1FFF731FE0128D7
:200B20000CBF0024032401F0AFFB012800F0A080FFF7B2FE01280CBF2046032002B070BDC9
:200B4000012900F08E80002900F08580022002B070BD2129FAD84C4C4FF47A72208AE38955
:200B600002FB03F302FB00F2A3F5522302F57F42FF32A3F69533454803EB2243A0FB03239B
:200B8000CAB2C3F387139A4221D0C82303FB01F13F4801F5522303F69533A0FB03213D4AE8
:200BA000890902FB01331B04A0FB03233A488AB29B092382E2810284A7E731F00403C5D156
:200BC000364BC1F380011A7819708A429DD1002002B070BD31F00103B8D1C8B2AEE74FF609
:200BE000FF742F4DAE88A64208BFFF2309D02A460023083290880133A042DBB2F9D1013B98
:200C0000DBB255F83330264C99429FDB236899429CDC0191FFF76AFC4FF6FF739E420199D3
:200C20002CD022461C460023083290880133A042DBB2F9D1013BDBB255F8332005EBC300F0
:200C4000914203F1FF3316DD5A1CF5D1FFF724FEBDE7012072E70191FFF72EFE019908469A
:200C60006CE7FFF747FE012814BF0320002065E701F0A2FB5CE70B4B1860E7E70023D9E70B
:200C8000EA090020F4050020240600201F85EB51D34D621018FCFFFF3C060020D12B0020DC
:200CA0007C4E0100F806002099B1F0B50C4683B0172800F2B980DFE800F05E9DB7B7950EAA
:200CC0008B58297886B7B7B70E7E126BB78274700E91022070470020086003B0F0BD4FF61A
:200CE000FF705B4DAB88834208BFFF2309D02A4600230832918801338142DBB2F9D1013BB3
:200D0000DBB255F8333000202360E6E701F0CCF8002840F08D80FFF7EDFD012840F09380C0
:200D200007460A2580266B1E13F0FF054FF000014FF004020FD001A813F0A8F840F20343D9
:200D400001A86946ADF8043001F0B6F818B19DF802607306E7D0002F72D176B216F1800FA3
:200D600026600CBF03200020B7E73A4B002093F900300B60B1E701F097F830B1364B58881B
:200D8000A0F10200B0FA80F0400920600020A4E72F4B00201B680B609FE73E230B60002038
:200DA0009BE7A0230B60002097E72C4B00201B785BB20B6091E721230B6000208DE706235F
:200DC0000B60002089E7264B00201B780B6084E7244B00201B681B680B607EE718230B6013
:200DE00000207AE70020204B08601B78F3B104230B6072E71D494FF47A72CB89098A02FBE4
:200E000003F302FB01F2A3F5522302F57F42FF32A3F69533164903EB2243A1FB0323C3F36B
:200E200087132360002058E7012056E7184654E7094B5B88022B08BF00273FF472AF6AE748
:200E4000FFF73AFD89E76FF07F032360032044E77C4E0100EA090020F4050020EB09002038
:200E6000D22B0020F8060020D12B0020240600201F85EB5170B582B0044601F015F828B377
:200E8000244B5B88022B08BF00251FD12249221DA31C224C92B29BB2100A2382E1614870D6
:200EA0000A70FFF76DFC002001F03AFA204601A901F002F888B9012601F04CFA0023638074
:200EC000FFF73EFBE5B9304602B070BDFFF712FD01281AD0012002B070BD00F0F5FA104E9B
:200EE000317800E099B163880C4A03F44063002BF8D0508880B2B0F5505618BF0126DBE73C
:200F0000FFF7DAFC304602B070BD0546BEE700F04BFDE5E7F4050020700C0020640600207D
:200F2000D12B002010B50C46B32C014694BF2246B422044812F0D0FE2046BDE81040FFF75A
:200F400099BF00BF720C002030B583B001F044FB01281BD000F0A8FFD0B1154B5B88022BF8
:200F60001FD000258024134801A900F0A5FF012803D19DF806406306F5D07DB90E4B64B275
:200F800093F90000A042D4BF0020012003B030BDFFF7B0FC012806D10546E3E7FFF78CFC3A
:200FA000ECE70120F2E7FFF787FC0120EEE700BF6406002001000304EA09002010B500F0DC
:200FC00073FF80B10F4B5B88022B0BD10E4C237853B90E4B1B689B0601D501232370207885
:200FE000C0B210BD002010BDFFF7AEFFB0FA80F0400920702378002BF1D1044B6FF02002D7
:201000001A60ECE7F4050020CE2B002008100440F8B51F4800F01AFE06F032FC012802D0BA
:2010200000242046F8BD1B4C002120464FF4107212F02CFF40F25F30174B184ADFF878C0FD
:20104000174DDFF878E0174F4FF400510026CCF8004083E85000AB62C5F82CE03884D0813B
:201060001182FFF747FC01280446D9D10E4B0F4A1E6013680E4843F02003136001F080F953
:2010800001F084F931460B4803F05EF9C9E700BFE4060020300A0020240A00202406002063
:2010A000F40500203C060020081004400C1004402C450100100700202C0A0020180A0020B8
:2010C00010B5064C042023685B699847236804205B6B98470128F9D110BD00BFB80100100B
:2010E000F8B51A4A00200021C2E90001184B04201B685B6B9847012801D0FFF7E1FF144B14
:2011000000201B68DB699847124B0121124A196013689B07FCD5114A11491368096823F40F
:20112000807323F001030F4C13600B6820460E49984740F221200D4D0D490E4B04273126CA
:20114000012227602E6008601A60F8BDF0090020B801001028200860282008400C00014051
:20116000C801001000000140002100043C000140080001400400244310B40949094C0B6821
:20118000226808688342FAD1DB01074903EB52620023C1E900235DF8044BD1E900017047F1
:2011A000082009400C200940F009002010B50B490B4C0B68226808688342FAD1DB01094995
:2011C00003EB52620023C1E9002302F057FE00B910BDBDE8104002F031BE00BF08200940AA
:2011E0000C200940F009002010B505F073FF034B1C6808B905F072FF204610BD0820094098
:2012000038B51A4B05461B6804205B6B9847012801D0FFF755FF154B154A1B680020DB69FB
:2012200014689847134B0121134A04F00104196013689807FCD5114B11491A460D60196815
:2012400041F4807119601368D905FCD404B138BD064B20461B681B6A9847064B0121064ABB
:20126000196013689B07FCD538BD00BFB80100105420084028200860282008400C00014041
:201280002C000140704700BF0146012000F052B805F036BB2DE9F04105F01CFF1D4E1E4BF8
:2012A0001E4F32680124002580464FF480314FF480703D601C6018601960136828462321B9
:2012C0009847336820461B6824219847336802201B6825219847124A1249136843F4E023B6
:2012E00013600D6005F00CFB0F4B1049104A1B6800F50070086014603C601B69142098470E
:20130000B8F1000F01D0BDE8F081BDE8F04105F0E5BE00BF84010010042009400000244398
:201320000020094008200940B00100101C200940A0022443431E012B10B41BD9042802D041
:201340005DF8044B704700231A4610F004001CBF0E4C216013B10E4B0121196012B10D4B22
:2013600001221A600028EBD00B4B01221A605DF8044B704710F0010302D0084A01231160E2
:2013800010F00202E1D0064C2160DEE72020094080022443A0022443C002244318200940DB
:2013A0001C200940014B1868704700BF280D002008B5FFF76DFF184B1860FFF7F7FE174BCA
:2013C0001B686BB9164B1B68E3B9164B1B6833B11549164B00204FF4803208601A6008BDA3
:2013E000124B4FF480721A6005F08AFA00F205200F4B20F4FF7020F001001860084B1B6815
:20140000002BE2D00B49094B0020012208601A6002F0DEFFD9E700BF280D0020A000244378
:2014200080002443C0002443C0022443042009401C20094080022443820702D5034B0122C9
:201440001A60C30700D4704705F048BE000C084008B505F03FFE074B1A68012A03BF06496F
:20146000022219600022002814BF104642F0010008BD00BF000C084051E5CC1A034904489D
:20148000044B012208601A60704700BF00000840FFFF0F00000C084038B5FFF7D9FF064CCC
:2014A000064D0749074A012325600B601360BDE83840FFF7C1BF00BF00000840FFFF0F000A
:2014C0000C0008400401004303490448044B012208601A60704700BF00000840FFFF0F00B9
:2014E0000C00084008B5FFF7D7FFFEE708B5064803F020FB30B1054B0121054A196013687B
:201500009B06FCD508BD00BF2C0D0020000222431410094070B5054605F0DCFD0B4C2946A4
:2015200006460B4803F008FBFFF7E0FF236868681B689847236868689B6898471128F9D144
:2015400006B170BDBDE8704005F0C8BDA00100102C0D002038B5044648B9134803F0EAFA64
:2015600028B1234605C813430028FBD19BB90F490F480B680F4D104C0068002223F4C05330
:201580000B602A602260C368012098470B4A13689B06FCD438BD054A136823F4C05343F448
:2015A0000063136038BD00BF2C0D002004100940A001001080012243000222431410094080
:2015C00038B5054605F086FD04462946054803F0F7FA0020FFF7BEFF04B138BDBDE83840D7
:2015E00005F07CBD2C0D002070B50446B0B10078C0B1A9B10025661804E014F8010F38B1C5
:20160000B44205D000F054F9631C05F10105F4D100F094F90128FBD0284670BD0546F7E74D
:201620000D46F5E70546F3E710B40B4B0B4C13F8012FFF2A0ED1A342F9D1094A39B1114461
:20164000013801390B78914200F8013FF9D15DF8044B7047034AF1E7C7FF0100CFFF0100A9
:20166000F0120050C8FF010038B50C4D02202B685B6998472B6802205B6B984701280446E5
:20168000064BF7D11B684FF40070DB699847044B044A1C6013689B07FCD538BDB801001013
:2016A00028200860282008402DE9F04340F2F275DFF8DC8083B0FFF7D7FFD8F800302A4E5E
:2016C000DB682A4898473368294C5B69152098472368DFF8C090274F23F4FE63D9F80020FD
:2016E00023F0020323603D60D36B032098472249D9F800204FF0FF33082008600093D2F8B8
:2017000040C01A4802210322E047D8F800301748D3F804C019494FF4E1326023E04740F276
:20172000011240F2013E1649164B142008601968154841F01001196003681449002B0CBF72
:20174000134673460B603D60036853B12368326843F0500323601369152003B0BDE8F04396
:20176000184703B0BDE8F083B001001000100040381000404410004090200240006CDC02D6
:20178000341000402C100040300D002030100040D0010010B401001008B5064B02201B6813
:2017A0005B6B9847012803BF034B186800F00100002008BDB80100106C20084038B5044621
:2017C000FFF7EAFF18B1264A13681907FCD4032C03D0244B1B6803B138BDFFF7DDFFF0B96E
:2017E000214D4FF400702B681B6A9847032C2CD01E4B01211E4A196013689B07FCD5032029
:2018000000F040FA022000F03DFA4FF0FF3000F039FABDE838404FF0FF3000F033BA154BFC
:2018200015481B68DB689847144B15201B685B69984740F2F270124A1249136823F4FE63AE
:2018400023F0020313600860CAE72B684FF400709B6A98472B684FF400701B6B9847C7E761
:2018600018100040300D0020B80100102820086028200840D001001000100040B0010010A8
:20188000381000404410004010B505F023FC0446054800F0DBF9054B00221A6004B110BD8A
:2018A000BDE8104005F01ABCFC060020300D002010B50446FFF770FF08B9FFF7F5FE044B7C
:2018C0002146BDE810401B680248DB69184700BFD00100100010004010B5134B134C186052
:2018E000134A2368A8B1022111615B6A4FF40070984723684FF40070DB6A98470D4B0121DF
:201900000D4A196013689B07FCD5BDE81040FFF7CBBE10619B6A4FF40070984723684FF4BF
:2019200000701B6B9847E9E7300D0020B8010010FC060020282008602820084008B5FFF7C7
:201940002BFF18B1024B1868C0F3C00008BD00BF1810004038B5FFF787FE40F2F2710C4B14
:201960000C4A1B68116013F0500F10D00A4C0B4D05E02B681B699847094B1B6823B9236814
:201980000848DB06F5D538BDC0B29847F7E738BD401000404410004018100040D0010010C6
:2019A000300D002000100040034A136823F00403136030BF704700BF10ED00E02DE9F84392
:2019C00005F088FB02F08AFC18B1BDE8F84305F085BB8E4803F0AEF80225044648B1636895
:2019E00023B19847A84228BF2846C5B22468002CF5D1FFF74DFC864B80461B68CBB91F46BE
:201A0000994602F03BFA002840F0A780012D0446064600F0EC80022DD7D1E7B1A9F14101D6
:201A2000B4B18B1B002B13DB31460220FFF782FC18E0784BD3F80090C0EB0903022B00F18A
:201A4000BE80A3F28F23002BC0F2CB800127D8E70420FFF76FFC002CE6D108F1FF3102203F
:201A6000FFF768FC694803F065F806250446002800F0AA80A368022003B19847236924687C
:201A800025EA0305002CF5D1FFF71EFD6B0705F0060400F19C80002C40F09D8000F0BCF990
:201AA0000020FFF757FD5C495C4A0B685C4823F003030B601368016843F00F0313608B6946
:201AC00039209847574A584900231360184613600B6005F037F9062C00F08580534C544D2E
:201AE000544E2B682368326823F00303236053685148032198474A4B1B689B6B98472B6809
:201B000005F078FA4D4A3368002111604A485B680121984723684A4A012143F00303236047
:201B200011602B6805F098FAFFF7E0FCFFF73EFBFFF7CAFC354802F0FDFF044628B1E36884
:201B400003B198472468002CF9D100F033F905F0C5FABDE8F84305F0C1BA02F097F9064682
:201B6000FFF70AFB361A002E7FF72FAFFFF71AFC344B00EB4626C8EB0303F34240D401248F
:201B8000A5427FF448AF6FF00703C8EB0303F34233D408F58038C6EB080336EA230628BFF5
:201BA000464631460220FFF7C5FB274A136823F00403136030BFBDE8F84305F08FBA0023A1
:201BC0009D4288BF1D4641E7FFF77EFC06241C4B00221A605FE7124B20461B689B69984748
:201BE0005CE70123ECE7022005F07CFA76E708F580310220FFF79EFBD7E708F10806D0E7E6
:201C0000022DC0D0012D7FF4E0AEBCE7340D002080022443182009400010094008100940AE
:201C2000B80100104010094020042243242208402C200940D8010010004003408001044362
:201C40000C40094071FDFFFF10ED00E00146014802F072BF340D00200146014802F0B0BFA1
:201C6000340D002010B5054802F060FFBDE81040034B03201B6820211B681847340D002033
:201C800084010010421C0ED010B50446064B4FF4C0421B6800211B689847044AA3001A437A
:201CA0000023136010BD7047B4010010001A4442024B1868186002F05BBE00BFE020024054
:201CC00070B51B4B0C461B6805465B68984714F00C0320F0E06222F4EC2207D0042B20D038
:201CE000082B21D00C2B08BF42F4403214F003030DD142F4C04223060D4B2846BDE87040B6
:201D00001B6848BF42F480221B6800211847022B04D0012B08BF42F48042ECE742F4005217
:201D2000E9E742F40032E1E742F48032DEE700BFB4010010064B1B68C340DB074CBF054B5E
:201D4000054B1B6823FA00F000F00100704700BFD020024080200240C020024010B584B00D
:201D60000022412302A802920393FFF7D3FB042004F008FE032813D00420032104F0D2FD0E
:201D8000042004F0FFFD03280346F9D1074A084812680093546800214FF040521C23A0476F
:201DA00002A8FFF70DFC04B010BD00BFA401001000A00C4000B583B00022412368468DE808
:201DC0000C00FFF7A7FB012004F0DCFD012803D00320012104F0A6FD6846FFF7F1FB03B056
:201DE0005DF804FB00B583B00022412368468DE80C00FFF78FFB012004F0C4FD012803D0A0
:201E0000044B986B04F0D4FD6846FFF7D9FB03B05DF804FB4800001010B582B041236846CB
:201E2000002401930094FFF775FB0320214604F079FD012004F0A6FD18B1044B986B04F035
:201E4000B7FD6846FFF7BCFB02B010BD4800001070B50388044653B1B3F52E7F03D18229CA
:201E60000AD0012070BD00230380032070BD4FF42E732380012070BD094B0A4E1D69FFF747
:201E800023FB03F0DBFA03F073FA8021A847002880B2ECDD03F066FAF3689847EFE700BF27
:201EA000F444010068680100024B186800F00100704700BF9C21084010F0030370B5064668
:201EC0000D4602D1028811051FD405F003F91F4B00301B6818BF0120DB0720D51C4B1D4C9C
:201EE0001E6023684CF250322B6003E02368013A2B6014D013F0FF0FF8D018B32878A0F1A1
:201F00000100B0FA80F0400970BD438005F0E2F80E4B00301B6818BF0120DA0702D468B1CA
:201F2000002070BD338813F4405FD7D003F44063B3F5006F04BF084B1E60CFE705F0CEF896
:201F4000002070BD05F0CAF8D8E700BF9C21084000100440041004405C0D00200A4A01E090
:201F6000013A0ED0438803F44063B3F5806FF7D1428802F44062A2F58060B0FA80F0400948
:201F800070471046704700BF20A1070030B583B005F0A0F8254C0546236819201B6A98476D
:201FA000236812201B6A9847236819205B699847236812205B6908349847236801205B698D
:201FC0009847236801205B6B98470128F9D11849184B194A0860186013689B07FCD5134C8A
:201FE000164817492268002303600B60136919209847236812201B699847A5B140F2FF3538
:20200000104B114A11481249002405600C60114801A91A60FFF750FFA0F10100B0FA80F0F3
:20202000400903B030BD05F059F8E7E7B00100102C2008402820086028200840101004608A
:20204000141004600010044051000706000004601C1004400100060410B586B00021142215
:2020600001A811F013FF40F60A0215499DF811300C68012161F3030301A8694605948DF8C8
:202080001130ADF80420FFF717FF012802D0002006B010BD0B4801E00138F9D0BDF806306B
:2020A00003F44063B3F5806FF6D1BDF8060000F44060A0F58060B0FA80F0400906B010BD7E
:2020C000700D002020A1070000B587B00021142201A811F0DBFE40F609029DF8113001219C
:2020E00061F3030301A869468DF81130ADF80420FFF7E2FE012803D0C0B207B05DF804FB50
:20210000104801E00138F8D0BDF8063003F44063B3F5806FF6D1BDF8063003F44063B3F575
:20212000806F03D0002007B05DF804FB064B1A782AB9064A0599012011601870DDE70120FF
:20214000DBE700BF20A10700CF2B0020700D002030B587B004F0BEFF314C05462368192026
:202160005B699847236812205B6998472D4B1B68DA071AD52C492D4A00230B6002A819460E
:202180001360102211F082FE40F60D029DF81530012161F3030302A801A98DF81530ADF8BB
:2021A0000820FFF789FE01282CD0FFF78DFF2048204B00240121204A0460196013689B0756
:2021C000FCD51E4C012023689B699847236801205B6B98470228F9D1114C192023681B6A4A
:2021E0009847236812201B6A9847236819201B699847236812201B6998470DB904F06EFF71
:2022000007B030BD0E4A01E0013ACED0BDF80A3003F44063B3F5806FF6D1BDF80A30C4E787
:20222000B00100109C21084010100460141004602C2008402820086028200840B80100102F
:2022400020A1070008B505F043FB052803460BD003280DD018B101280FD0002008BD094B63
:2022600003221A60012008BD064A0120136008BD044B02221A60012008BD024A052111607A
:2022800008BD00BFD021084008B5FFF71DFFFFF7E3FE012802D0FFF75BFF002008BD00BFEC
:2022A000F8B5174B174A19781268174B002914BF00241C46D30700D4F8BD04F00BFF064612
:2022C000124A134B1348144F144D00213B60046011602B6819201B6A98472B6812201B6A1A
:2022E00098472B6819201B6998472B6812201B69984706B1F8BDBDE8F84004F0EFBE00BFFF
:20230000D12B00209C2108400000C08010100460000040801410046018100460B001001043
:20232000084B0028197818BF0822074B08BF0222002918BF0023054805491A4303600A606B
:20234000704700BFD12B00200000C0801010046014100460044A054B1178054A002918BF29
:2023600000231360704700BFD12B00200000C08014100460014B1868704700BF5C0D0020A2
:20238000014B1860704700BF640D002038B5064B064C1D6806484FF43441064A002325605F
:2023A00001F034FE012038BD04300440380D00203C0D002029240000164B1B68DBB170B5BC
:2023C0009B68984708B9002070BD04F083FE124B124C1D680646002115F1804022684FF05C
:2023E000000341F10001994208BF904209D325601EB1012070BD0020704704F06FFE01205C
:2024000070BDFEF745FF064A06491368086001331360ECE7640D002004300440380D0020EC
:20242000600D0020680D002070B5134B1B68B3B19B689847D8B9114D2B6A984701280ED1C3
:20244000FFF7BAFF6B6A0446984744B1BDE870400B484FF434410B4A002301F0D7BD08482D
:202460008021084A0023BDE8704001F0CFBDFFF7A3FF0446E9E700BF640D0020F444010039
:202480003C0D002029240000F8B5224C2368002B3DD09B680646984700B3FFF78DFF1E4BDC
:2024A000B6F1404F1F6825D822681C4BB2F90C401968E517641A65EBE1750022A41945F1C4
:2024C0000005A01845EB0701090241EA106143F609520023000211F0F5F8F8BD104D2B6A12
:2024E0009847FFF769FF6B6A98470B4BB6F1404F1F68D9D9FEF7CCFE0A4B1B68C3F17E431A
:2025000003F57203C34248BF07F1FF37CCE71846F8BD00BF640D0020600D0020700D0020D4
:20252000F4440100680D002010B5104B1B68DA0704D4FFF72BFD012800D010BD0C4C2368AA
:202540005B0204D40A4B6FF000421A6010BD094B012209481A7001F017FF6FF48003236047
:20256000034B6FF000421A6010BD00BF9C21084010100460D02B00201007002008B5124B71
:202580001B68D90707D4114805F0F0FEFFF7FEFC012800D008BD04F09DFD0D4B1A68120297
:2025A0000BD40B4B1A6812F00A0F1CBF6FF00A021A60BDE8084004F091BD6FF400021A607B
:2025C000044801F0E1FEECE79C2108401C4F01001010046010070020014B1878704700BF8E
:2025E000D32B002008B500F08BF880B208BD00BF00F010B938B50C4D04202B685B6998477E
:202600002B6804205B6B984701280446064BF7D11B6840F20140DB699847044B044A1C60A0
:2026200013689B07FCD538BDB80100102820086028200840034B1B68002B14BF012002209C
:20264000704700BF740D0020F8B503880446002B2ED0B3F5847F05D1184B1B788B4205D09F
:202660000120F8BD002303800320F8BD144D2B6873B1144B144A1B6812685B6802201746F2
:2026800098470026301847F100012B6898472E600E4B40F201401B689B6A98470C4B012108
:2026A0000C4A196013689B07FCD50B48FFF7D4FA4FF4847323800120F8BD00BFEC090020BF
:2026C000740D0020CC01001004800240B801001028200860282008402007002008B5064B58
:2026E00004201B685B6B9847012803BF034B1868C0F34000002008BDB80100103C20084090
:2027000070B5274B1B689BB1264C0023224612F8011B29B90133042BF9D10020014670BD8D
:20272000214A002502EBC302E55492E8030070BDFFF7D4FF00282FD01C4A1D4B12681340E9
:2027400073B91C4A01211346116018680028FCD102464FF4807105F017F9174B01221A6006
:2027600004F0B8FC0646114A1368DB07FCD5134B134A1B6814685B680220984723460022D3
:20278000141843F1000516B12046294670BD04F0A5FC2046294670BDFFF72CFFCCE700BFE1
:2027A000740D0020780D0020F80900200880024001000080F09F0240A8025042CC0100107D
:2027C0000480024038B50E4D00240E4A2C6013680D4923F00103096813604B693120984733
:2027E000204622464FF4807105F0CEF80122074B2A6019782246BDE83840054801F078BD94
:20280000A80250420C800240B0010010EC0900203407002010B5074C2378802B00D010BD82
:2028200001F0E4FC207000210348BDE8104001F08BBD00BFEC0900203407002008B504F0BD
:2028400049FC003018BF012008BD00BF80F31088704700BF10B5BAB00A4604462821684646
:202860000AF072FB6B46C021034A0AA805F0A4FD0AA8A0473AB010BD804F0100F0B50746B8
:20288000B1B0D9B10D460126002404B3E3070DD5C021134A2B78684605F08EFD6846B84770
:2028A000082E12D0013601350134EEE76846C0210C4A05F081FD6846B847E9E76846C02125
:2028C000094A05F079FD6846B84731B0F0BD6846C021034A2B7805F06FFD6846B847E1E7AA
:2028E000944F0100AC750100844F0100F0B50388B1B006460D461BB36F2B1CD1254B264F94
:20290000186843683A68254829469847012836D96C46234AC021204605F04EFD2046A847FC
:2029200028462049FFF7AAFF2046C0211E4A05F043FD2046A84700233380032031B0F0BD61
:2029400013781446202B03D114F8013F202BFBD02046202111F008FB0F4F386018B1002384
:2029600000F8013B3860204600F092FF094B186038B10A4A00216F2311803380C1E70020DC
:20298000DCE76846C021094A05F016FD68466C46A847BEE7800D0020840D00207C0D00208F
:2029A000D44F0100242C0020D84F01009C4F010000F056BF074A106858B170B40648074ED1
:2029C000074D0024146031702B80006870BC01F0DBBC7047DC0D0020A80D0020D42B0020EF
:2029E000BC2B002030B50388B1B004465BB90D46074AC021684605F0DFFC6846A847054BB1
:202A000005489B6A984700230320238031B030BDA85001003C850100CC50010030B5038886
:202A2000B1B004465BB90D46074AC021684605F0C3FC6846A847054B0548DB6A984700236F
:202A40000320238031B030BDD45001003C850100CC500100F0B50388B1B0074623B1002309
:202A600003203B8031B0F0BD114A0D466846C02105F0A2FC6846A8470E4802F05BF8064696
:202A80000028ECD0746823685BB1A368C0210A4A684605F091FC6846A84754F80C3F002B10
:202AA000F3D1304602F0A2F806460028EAD1D6E7F8500100880D0020B454010070B50388AD
:202AC000B0B0054623B1002303202B8030B070BD0C46374AC021684605F06EFC6846A04723
:202AE000344BC0211B68344A344E684605F064FC6846A0473368C021314A684605F05CFC69
:202B00006846A0473368002BDDD005F0CDFC064603F058FCC02103462A4A684605F04CFCD3
:202B20006846A047284BC0211B68284A684605F043FC6846A047264BC0211B78254A68463E
:202B400005F03AFC6846A0476846C021224A05F033FC6846A04716B3311D2046FFF78EFE02
:202B60006846C0211D4A05F027FC6846A047FEF703FB1B4BC0211B681A4AC31ADB09684622
:202B800005F01AFC6846A04707F0DCFBC0210346154A684605F010FC6846A04793E76846D2
:202BA000C021124A05F008FC6846A047DFE700BF10510100F424002020510100582400201D
:202BC00038510100505101002425002064510100D82E00207C51010094510100C871010096
:202BE0007C2C0020B0510100D8510100A8510100F0B50488B5B0074624B1002303203B802E
:202C000035B0F0BD0D4607F007FA18B102203C8035B0F0BD06F020FA0646C02104A8002E87
:202C200039D0204A05F0C8FB04A8A847306901F081FF0446F288B38804A80092C0211A4A42
:202C400005F0BAFB04A8A847F4B1627D237D0092228AC0210192628A04A80292134A05F0DB
:202C6000ABFB04A8A847A11D2846FFF707FEC0210F4A04A805F0A0FB04A8A847204601F084
:202C8000B5FF04460028E0D1304606F0EBF906460028CBD1B1E7074A05F08EFB04A8A847FB
:202CA000ABE700BF20520100305201005C520100C8710100005201002DE9F0430788B3B056
:202CC0000546002F29D188461446002A33D01678002E3BD130463C4911F0ACF900282CD19D
:202CE0003A4E0123336014B12378002B39D1384C0023236002AF3368ABB1364B364AC0214C
:202D000000923846354A05F057FB3846C047206808F0DAFB306808F0C3FB00232B800320C4
:202D200033B0BDE8F08320682D492B4A2D4B002818BF0A46E3E71646CCE730462A4911F09B
:202D400079F9002838D1214E3060CCE71046202111F00AF9002834D000F8017B264604462D
:202D6000B8E72046202111F0FFF808B1002303702046154911F05EF9814658B902AFC02140
:202D80001A4A3846124C05F017FB3846C047C4F80090B0E72046144911F04CF90028A6D0DD
:202DA0002346134A02A8C02105F006FB02A8C04700232B800220B3E7334602A8C0210D4A36
:202DC000F2E72646044685E7C05201008C0D0020D80D0020A8520100B452010024530100AD
:202DE000B8520100A4520100C4520100E452010004530100C8520100F0B50388B1B0054634
:202E000023B1002303202B8031B0F0BD0E46134AC021684605F0D0FA6846B047104C04F16A
:202E2000600714F8023C227C0BB1012A03D92034BC42F6D1E5E70B4AC021684605F0BCFA0C
:202E40006846B04730462146FFF704FD6846C021054A05F0B1FA6846B047E8E74053010073
:202E6000522F002058530100C871010070B50388CAB0064623B10023032033804AB070BD61
:202E8000304A0D461AA8C02105F096FA1AA8A8470AF07EF90AF008F90446C0211AA8002C07
:202EA00049D0294A05F088FA1AA8A8472846211DFFF7D0FCA3691AA8C0215BBB234A05F0C9
:202EC0007BFA1AA8A84709F057FB00282BDD09F053FBC02103461E4A1AA805F06DFA1AA898
:202EE000A84709F04BFC04460028C4D02246642101A809F0A5FCC021164A01AB1AA805F0C9
:202F00005BFA1AA8A847204609F03EFC04460028ECD1B0E7104A05F04FFA1AA8A84709F00A
:202F20002BFB0028D3DC1AA8C0210C4A05F044FA1AA8A8479FE70A4A05F03EFA1AA8A847FF
:202F4000C1E700BF5C5301005853010088530100AC530100CC5301006C530100D4530100CA
:202F6000A0530100F0B50388CFB006466BB91B4B0D461B7B13B10CF06DFC58B91EA8C0210E
:202F8000174A05F019FA1EA8A8470023032033804FB0F0BD134F386802F008F80446C0214F
:202FA0001EA8114A05F008FA1EA8A847002CECD02246782168460CF0F3FCC0210B4A6B46DB
:202FC0001EA805F0F9F91EA8A8472146386801F0B5FF04460028EBD1D7E700BF6C3200207A
:202FE000E85301006809002000540100B4540100F0B50388B5B0064623B1002303203380F8
:2030000035B0F0BD0C467D4AC02104A87C4D05F0D3F904A8A0472B7B04A8C021002B00F00D
:20302000DC806B7B774A05F0C7F904A8A047764B1B699847002840F0C88004A8C021734A37
:2030400005F0BAF904A8A047714AC02104A805F0B3F904A8A04720466E49FFF7FBFB95F823
:203060005430C0216C4A04A805F0A6F904A8A0476A4AC02104A805F09FF904A8A04720469B
:203080006749FFF7E7FB674AC02195F8403004A805F092F904A8A047AB7BC021032B96BFD0
:2030A000614A624B52F8233004A8614A05F084F904A8A047AB681B8C002B00F094805D4A2F
:2030C0005A49012B0CBF13460B46C0215A4A04A805F072F904A8A047C021584AEB8A04A8E4
:2030E00005F06AF904A8A0472A7E454BFF2A16BF5B8B4FF0FF335343C021514A04A805F0A5
:203100005BF904A8A04795F85E30C021032B96BF4C4A464B52F8233004A84B4A05F04CF90A
:2031200004A8A047C021494A04A805F045F904A8A047686C324F002857D00CF0C3FB014671
:203140002046FFF787FB7B6C04A89B79C021404A05F032F904A8A047B5F84A30C0213D4A3D
:2031600004A805F029F904A8A047AA8AB5F848300092C021384A04A805F01EF904A8A04760
:20318000EB7BC021354A04A805F016F904A8A04795F85B2095F85A300092C021304A04A86E
:2031A00005F00AF904A8A047697C2A7CA87C0A448DE80600029095F8573004A8C021294A66
:2031C00005F0FAF804A8A04717E704A8C021264A05F0F2F804A8A04736E7244A05F0ECF8A4
:2031E00004A8A04709E7224B6FE704A8C021214A05F0E2F804A8A047AEE700BF2454010062
:203200006C320020485401003C8501006C5401007C5401008832002088540100985401005B
:2032200098320020A45401008C5D010010540100AC5401001C540100B8540100C4540100C4
:20324000E05401007C5D010004550100145501002C55010048550100585501007455010003
:2032600088550100B85501005C54010034540100185401004055010030B50388B1B004460A
:2032800053B90D46074AC021684605F095F86846A84705480DF0E6F800230320238031B0DE
:2032A00030BD00BFF8550100CC5001002DE9F0410788B0B00546002F3ED188461446002AE6
:2032C0005BD01678002E62D130464A4910F0B2FE002854D1484E0123336014B12378002BF6
:2032E0005FD1464B0022FD2119805A809A80DA801A815A819A81DA813368414C13B3236980
:2033000098470646C0216846002E30D13D4A05F053F86846C04740463849FFF79BFAC021D5
:20332000394A684605F048F86846C047A368314632489847E368984700232B80032030B09C
:20334000BDE8F0812369984748B1C0212F4A684605F032F86846C047E3699847ECE768466B
:20336000C0212B4A05F028F86846C047E4E7294A05F022F86846C047DEE71646A4E7304609
:20338000254910F057FE28BB1B4E3060A5E71046202110F0E9FD48B300F8017B2646044660
:2033A00092E72046202110F0DFFD08B1002303702046124909F05CFD074600289CD1234664
:2033C000C021164A684604F0F7FF6846C0472F800220B4E73346C021114A684604F0ECFFB1
:2033E0006846C04700232B800220A8E7264604466AE700BFC0520100CC0D0020BC0D0020DE
:203400003C850100405601006456010088560100B05601006C560100C45201002C56010055
:2034200014560100F0B50588B5B004460E46DDB140F205139D4212D1474D2B68464D1BB3CA
:20344000464800F015FD68B12B68EBB1C021444A04A804F0B1FF04A8B04700232B60002361
:203460002380032035B0F0BD12B11378002B2FD1C0213C4A04A804F09FFF04A8B047002310
:203480000220238035B0F0BD374AC02104A804F093FF04A8B04730463449FFF7DBF9344A63
:2034A000344B15881F78FDF767FE2C4B4FF47A7219680097401A02FB00F0C00901902B4630
:2034C00004A8C0212C4A04F077FF04A8B047C6E710462021039210F047FD039A00B10570FC
:2034E00010462249039209F0C3FC039A054658B91346C021214A04A804F05EFF04A8B04780
:203500000220258035B0F0BD1D4AC02104A804F053FF04A8B04730461449FFF79BF9C02137
:20352000184A04A804F048FF04A8B047164A174B1268094D09484FF420711A602E6000F0F0
:2035400083FC042309488021002208F0A1FF40F20513238071E700BFDC0D0020AC0D002033
:20356000F056010038570100FC560100980D0020BC2B0020D42B002018570100C8560100A7
:20358000E4560100C8710100000E0020A80D0020F0B5B3B00746C0210E4A02A80E4C04F02D
:2035A0000BFF02A8B847256895B163681E68304600F07AFB2B460190C021084A009602A8E4
:2035C00004F0FAFE02A8B84754F80C5F002DECD133B0F0BD645701006C070020745701000A
:2035E0002DE9F0430688B3B00446002E4CD10F46154612B11378002B4CD1002000F032FB79
:203600004F4B002518602B46C0214E4A02A804F0D3FE02A8B8473846FFF7BAFF002323807E
:20362000022034E04046202110F09EFC08B100230370404601A90A2210F0F4FEDFF81491DA
:20364000C9F80000002857D1019B984546D03368984216D00146284600F0E0FA28463A49FF
:2036600010F0E8FC002854D1D9F80030032B46DC08F024FD02A8C021344A04F09DFE02A86D
:20368000B8473846FFF784FF00232380032033B0BDE8F0831046202110F066FC8146002868
:2036A0003ED08046284608F8016B00F0DBFA244E29463060264810F0BDFC10B1336801336F
:2036C000A1D0B8F1000F03D099F80130002BA9D1204B4FF0FF321A604FF000084346C02181
:2036E0001D4A02A804F068FE02A8B84700230220238033B0BDE8F0830428EFD8A7E708F05A
:20370000CDFC02A8C021154A04F056FE02A8B847B7E728460E4910F08DFC0028A4D0B0E7E6
:20372000284600F09FFA064E29463060084810F081FC0028CCD033680133C9D163E700BF3C
:20374000940D0020C85201008C570100A857010088570100900D00200453010090570100CC
:2037600070B50388B2B0064623B100233380032032B070BD0D460AF01FFD0446C02102A8D1
:20378000002C3ED0234A04F017FE02A8A847224AC02102A804F010FE02A8A84720460AF0EE
:2037A00001FD01462846FFF755F81C4AC02102A804F002FE02A8A84720460AF0F5FC0146FD
:2037C0002846FFF75BF8627C1549042A94BF51F822001448237CC021134A009002A804F0A3
:2037E000EBFD02A8A847C021104A02A804F0E4FD02A8A84720460AF0E5FC04460028C6D1AB
:20380000B3E70B4A04F0D8FD02A8A84734800220AEE700BFDC57010058530100F457010001
:20382000685D010010540100FC570100C8710100C057010030B50388B1B004464BB9074A47
:203840000D466846C02104F0B7FD6846A847FDF749FE00230320238031B030BD14580100E2
:2038600010B5074C204601F061F92046054901F063F9BDE810400448044908F04DBE00BF2E
:20388000880D002044070020D00D0020B529000070B505460D4801F04DF9064698B17468C0
:2038A000206818B909E054F80C0F30B1294610F0C1FB0028F7D1204670BD304601F096F9DA
:2038C00006460028EBD1002070BD00BF880D002010B503880446442B0CD0452B14D01BB1F2
:2038E00000230380032010BDFFF762F844232380012010BD094B1B788B420DD162B10849F4
:20390000002045230880238005480649FEF7EEFF0128EBD8002010BD012010BDDF3300207D
:20392000E00D0020293900000146014804F01EBD804F01000148002100F006BD4C07002059
:2039400070B5674CFCF730FCFDF7CAFB00F028FD00F054FC6348002100F0F6FC00F01CFBAD
:20396000FDF78CFD00F0B8F900F06AFDFCF75AFC01F006FE00F0BAFA2368022B3CDC0822F6
:2039800059495A4810F0A8F95948002100F0DCFC4FF0FF3009F042F823680546022B504E76
:2039A00013DCFCF75BFCFFF7C5FF524800F088F9FDF772FD00F03CFC0446FDF785FD14F0BA
:2039C000FF0FF7D1FCF7B6FCF4E74B494B4A4C4804F0CCFC4B4804F0C9FC3368022BE0DD47
:2039E000002D7AD0A81C00F0C1F82368022BD8DD454804F0BBFCD4E73F49404A404804F0F5
:203A0000B5FC424804F0B2FC2368022BB7DD3A493A4A3B4804F0AAFC3D4B3E48196804F0D6
:203A2000A5FC2368022BAADD3349344A344804F09DFC394B3948196804F098FC2368022BDD
:203A40009DDD2D492D4A2E4804F090FC344B3548196804F08BFC2368022B90DD2649274A0C
:203A6000274804F083FC304848F2A51104F07EFC2368022B83DD2049204A214804F076FCD4
:203A80002A48042104F072FC2368022B7FF777AF19491A4A1A4804F069FC254B25481988DA
:203AA00004F064FC2368022B7FF769AF1249134A134804F05BFC204804F058FC2368022BA6
:203AC0007FF75DAF084800F061F82368022B7FF756AF0D4804F04AFC51E7284683E700BF3A
:203AE0006007002008080020242C0020AC30002038090020408C01004C440100B45D0100D2
:203B00003C440100905E0100C8710100BC5D01003C850100EC5D010074770100FC5D01008F
:203B200068680100085E0100145E0100305E0100BE2B0020685E0100785E010010B541603E
:203B40000446FDF751FB206010BD00BF10B50446FDF74AFB94E80A00034A0B44C01A9042B9
:203B60008CBF0020012010BDFEFFFF7F00B58BB002462821684609F0E7F96946024804F07C
:203B8000F5FB0BB05DF804FB804F0100D0B170B5054601260024C4B1E30709D50D482978E7
:203BA00004F0E4FB082E0CD0013601350134F2E7094804F0DBFB0748297804F0D7FB082E9E
:203BC000F2D170BD054804F0D1BB2978014804F0CDFBE9E7944F0100AC750100844F0100D8
:203BE00090B110B50A49044601F0E0FC20B1BDE81040084804F0BABBE188074849BA89B2E0
:203C0000BDE8104004F0B2BB024804F0AFBB00BFEC5F0100E45E0100EC5E0100042900D907
:203C20007047F8B506460D460C48314610F002FA0B4C0746216851B157B9A3686268AB42B9
:203C4000A8BF2B46136054F80C1F0029F4D1F8BD304610F0EFF90028EFD0F4E788570100FF
:203C60006C070020D0B1F8B50E4F396899B106463D46002403E055F80C1F013459B1304638
:203C800010F0D8F90028F6D104EB440407EB840463681868F8BD4FF0FF30F8BD4FF0FF3022
:203CA000704700BF6C07002004289ABF024B53F820000248704700BFB45E0100F45E010098
:203CC00010B50446006830B1002100F03DFB54F8040F0028F8D110BD704700BF10B50E4C91
:203CE0002368B3B1FDF748FA22685168136892681944091A4AB192E8180023441B1A926844
:203D0000994228BF1946002AF5D1044B0844186010BD024A136010BDF40D0020F80D0020E0
:203D20002DE9F041038805467BB1592B08D1872912D0822920D059232B800120BDE8F08152
:203D4000002303800320BDE8F081254A0120136059232B80BDE8F081214F3B68002BEAD04C
:203D6000D9688A4203D024E0D9688A4220D19B68002BF9D13B60DEE7194F4FF000083C68B6
:203D8000002CD8D0002604E0A3682646002BD2D01C46204600F046FB0028F5D0E06888212A
:203DA000224600F0A5FA78B10E4800F0EDFAEBE73B6099680029BED0C86882420BBF8968E2
:203DC0000B4699608968F5E7E060A3682EB1B360C4F80880FFF782FFD1E73B60F8E700BFE3
:203DE000F40D00200808002010B50446104800F0CBFA1049E3680A684BB142B194420FD09C
:203E0000134601E09C420BD09B68002BFAD10A4BA2601B680C60E360BDE81040FFF75EBF25
:203E2000054B1B68E360BDE81040FFF757BF00BF08080020F40D0020000E0020014800F0F4
:203E4000A3BA00BF0808002010B5044600F0D4FA2046BDE81040FFF7C7BF00BF10B50446A4
:203E600000F0D2FA2046BDE81040FFF7BDBF00BFC068B0FA80F04009704700BF024B18682C
:203E8000003018BF01207047F40D0020024B186808B1024B18687047F40D0020F80D0020D2
:203EA00010B5114B04461A68904218D05AB19368834208BF13460AD02BB19A68A24206D0FE
:203EC0001346002BF9D10023A360E36010BDA2689A60FFF703FF0023A360E36010BD826842
:203EE0001A60FFF7FBFEEEE7F40D0020034A04499079D37903EB00230B807047242C0020B1
:203F0000BE2B0020F0B5038883B005465BB14A2B04D188291BD0012003B0F0BD00230380D1
:203F2000032003B0F0BD194800F004FE044630B1201DA168FFF788FF2468002CF8D1144BDD
:203F400001221A704A2301202B8003B0F0BD0F48019200F0EFFD04460028F3D0019A031D65
:203F60009A4205D02468231D002CEBD09A42F9D10648214600F024FE064E6269A3693768A6
:203F800032600BB1E06998473760DBE7FC0D0020D52B0020000E002010B5064B0024064853
:203FA0001C7000F0C3FD2146BDE81040034800F0CBB900BFD52B0020FC0D00201808002062
:203FC00070B504460D48049D0078A261E361656130B9A1600A482146BDE8704000F0ACBDA6
:203FE000084D094B2E68201D2B60FFF72DFF2E602146BDE87040024800F09EBDD52B002099
:20400000FC0D0020000E00201808002010B5044C82B024680094FFF7D3FF02B010BD00BF9C
:20402000000E002070B5094B04461B783BB1084D084B2E6804302B60FFF710FF2E60214619
:20404000BDE87040044800F077BD00BFD52B0020000E002018080020FC0D002010B50A4B0B
:2040600004461B783BB9C36003612146BDE81040064800F0A5BD0430FFF712FF2146BDE8A5
:204080001040024800F09CBDD52B0020FC0D002038B50B4B1D785DB904460A4800F04AFD33
:2040A00010B90AE0006840B18442FBD1002038BD0430BDE83840FFF7DBBE012038BD00BF98
:2040C000D52B0020FC0D00202DE9F843DFF8A480274DD8F800702E68874247D077B33B4676
:2040E00001E0002B3BD01B689842FAD133B3837B8946044623B3002383736FB1BC424FF038
:20410000870106D0BB7BDB0703D53846224600F033F83F68002FF1D1A3683BB14C4505D05B
:204120002C6004F10C00832100229847D8F80000844208D12368C8F800302E60BDE8F883B5
:2041400038468442F6D00028F7D00368A34208D0002BF2D01A68A24204D01346F8E7BDE83A
:20416000F883034622681A602E60E7E73B46BDE7000E0020040E002070B586687EB104460A
:204180000A4802230460A37304F10C000D46B0470238012804D9832D02D00123A37370BDBA
:2041A00020462146BDE87040FFF78EBF000E002070B50C4A0C4B146800251D7084B1012610
:2041C00001E0246864B1E37B002BFAD0A673E573204682210022FFF7CFFF2468002CF2D12F
:2041E00070BD00BF040E0020D82B0020024B1878421C1A70704700BFD92B002070B40748AC
:204200000749084A0023084D084C8A2603700B6013602E70237070BC704700BFD72B00203A
:20422000040E0020000E0020D92B0020D62B00202DE9F041244D2B780BB1FFF7B9FF234EA3
:204240003378D3B1DFF890E0214F9EF80020013B02EB420189007C180132A068DBB202F07F
:204260001F0233708EF800207F5CD4F8048098B1812F06D0827BD20705D428781844BDE88A
:20428000F0810123837339464246FFF775FF337828781844BDE8F0810E4A146834B9ECE7D1
:2042A000A37BD9070AD42468002CF0D02B78002BF6D0FFF77DFFA37BD907F4D520463946F8
:2042C0004246FFF759FFEEE7D82B0020D72B0020080E0020040E0020D62B0020024A034BCB
:2042E00010781B7818447047D72B0020D82B0020F0B40C4D2C78202C11D00B4B0B4E1B783B
:20430000671C234403F01F0303EB43039B00F418A06062602F70F1540020F0BC7047012079
:20432000F0BC7047D72B0020D62B0020080E002038B5837B034CDB07256801D5FFF71CFF11
:20434000256038BD000E002070B404460D4D2868A04206D038B1034600E023B11B689C425E
:20436000FBD170BC7047002CFBD0012600232060A673A3810A4620462C60812170BCFFF78A
:20438000D7BF00BF040E002038B1837B013B012B03D8024A01231370C3737047D82B002069
:2043A000FCF770BF38B5094C049D226822B180E82A002060002038BD024680E82A0008464C
:2043C0002260FCF761FF002038BD00BF880F002010B5084C206858B100224368816822609B
:2043E0009847236823B1BDE810401868FCF74CBF10BD00BF880F002010B541600446FCF726
:20440000BBFE206010BD00BF10B50446FCF7B4FE22686168C2F101031844884284BF521846
:20442000226010BD10B50446FCF7A6FE23686268C3F10103184482422CBF0020012010BD61
:2044400000B50B4B83B001A90A4A99421160019388BFCD2005D95A1C01921870019B8B4234
:20446000F9D305480021FFF76FFF03B05DF804FBE23300208C0F00202808002038B5134C0B
:20448000FDF722F82378124DCD2B08D0AC4202D316E0AC4214D014F8013FCD2BF9D1AC42BD
:2044A00002D30DE0AC420BD014F8013FCD2BF9D0FDF70AF8AC42064804D2001B80B238BD1A
:2044C000FDF702F84FF6FF7038BD00BFE23300200050002070B5038804465BB1902B05D14A
:2044E0001848FFF7C5FC70B9012070BD00230380032070BD13484FF4A061FFF7A5FC90234F
:204500002380012070BDFFF7B9FF0F4D0F4B06465D1BADB2A8420DD90D4B1B68002B09DD67
:204520000C490D4A0D4803F021FF31462A460C4803F01CFF0348FFF791FC902323800120D9
:2045400070BD00BF900F0020E233002000500020600700208C5F0100905F01003C44010027
:20456000985F010010B5044690F84C308021013384F84C3020302346054AFFF747FD054BD1
:204580002246BDE8104019780020FFF7B1BE00BF65450000DD330020F8B5038804464BB191
:2045A000CB2B03D1822909D00120F8BD002303800320F8BDCB2323800120F8BDFEF73EF9C6
:2045C000BFF35F8F114B00221E681A60BFF35F8F0F4DFEF73BF928680028EBD0012703E01A
:2045E00055F8040F0028E5D090F8453007FA03F33342F5D0FFF74CFD0028F1D02868022175
:204600000346044AFFF702FDEAE700BFAC0F0020C005002055460000034A136803430348CA
:204620001360FFF7B1BE00BFAC0F00203808002010B5044690F84500FDF77CFB10B994F80C
:20464000440010BD012806BF94F8440080F00100002010BD70B50446FFF71AFD00B970BDCB
:2046600004F120052846FFF713FD06462046FFF7DFFF01280ED00028F1D1002EEFD12846D9
:20468000FFF7ECFC0A4B30462246BDE870401978FFF72EBE002EE2D000262346284684F8E8
:2046A0004C607E21034AFFF7B1FC034BEBE700BFDC33002065450000DE3300202DE9F84385
:2046C000FFF794FD244B254C1870FFF78FFD244BDFF8A0801870FFF789FD224D2368224A99
:2046E00000212870C8F80810C8F8042053B3DFF888901E4F0126D9F800209D6C926B93F83A
:2047000045009047236845F08C05294693F84500FDF7D6FA2268D9F8003092F8450006FACF
:2047200000F23A601B6B98472368D8F8082093F8451054F8043F06FA01F10A43C8F808206F
:20474000002BD8D10A480021FFF7FEFDBDE8F843084800F007B900BFDE330020C00500206C
:20476000DC330020DD33002019460000E020024038080020A00F0020B4010010F8B504880C
:2047800005466C2C0CD07E2C1BD01CB1002303800320F8BDFFF72AFD1E4A1F4B10701C608F
:2047A0001D4C264604E00A2813D023687E2B2BDD1A4800F0ADFA431CF5D16C232B80012076
:2047C000F8BD852901D00120F8BD134C00232360E6E7114C124F23680E49002603F1010E34
:2047E0003A4609783046FE54C4F800E0FFF780FD0C4B324618688521FFF77AFD0028E5D1A1
:204800007E232B800120F8BD05495A1CC8543260CEE700BFDF330020B81000203010002016
:2048200038100020000E00200D281FD010B5104C0146237833B10A2810D00E48FFF7A4FDD8
:20484000012010BD0C4800F04BFA0028F5D1012308482370FFF798FD012010BD064800F035
:204860003FFA0028E9D000232370E6E700207047DA2B0020480800203010002008B50548C5
:204880000549802200F024FABDE8084003480021FFF75ABD30100020B00F00204808002005
:2048A000F0B40F4C0F4F22460F4E0023012540FA03F1C90706D5517859B114F8131005FAB3
:2048C00001F131600133042B02F10202EFD1F0BC704714F8131005FA01F13960F2E700BF87
:2048E000A044010090200240A0200240F0B40F4C0F4F22460F4E0023012540FA03F1C90776
:2049000006D5517859B114F8131005FA01F131600133042B02F10202EFD1F0BC704714F8AF
:20492000131005FA01F13960F2E700BFA0440100A02002409020024070B5084E084D002465
:204940002B6816F81400DB6B01349847042CF7D1BDE870400F20FFF7C9BF00BFA0440100AA
:20496000B40100100146014800F0E6B8BC10002038B50546074800F0DDF8044640B1A068D9
:20498000284002D0636803B198472468002CF6D138BD00BFBC100020014800F0C7B800BFE9
:2049A000BC1000202DE9F04104880646772C30D07E2C27D024B1002303800320BDE8F081F4
:2049C000FFF714FC2F4F304B304D3A6818702C60002A45D02346A0462D4C04F80380936824
:2049E0008020002198472B68013357F823202B60002AF2D1DBB2274A137077233380012057
:204A0000BDE8F081204B1B788B4219D00120BDE8F081DFF880801D4D98F800201E4F002314
:204A200093423B602B6007DA194CE156002919DB013393422B60F7DB3B68002BEFD1DCE72A
:204A4000124D134CDFF84C80134F2B683A68E05C511C00F07F0098F80020E0543960E7E7FB
:204A60001346C8E70849074A097852F823200020FFF73EFC0028E8D17E2333800120BDE833
:204A8000F08100BF28040020E0330020C4100020F42B0020DB2B0020C010002000230139C1
:204AA0000170437083707047417883780278CB1A13409A4204D001310A404270012070470C
:204AC00000207047427883780078D31A0340984214BF10464FF0FF30704700BF034680787A
:204AE00059781A78091A11421DBF411C0A409A704FF0FF30704700BF8278437801789B1A89
:204B00000B4214BF10464FF0FF3070474378827800789B1A184070474378817802785B1A66
:204B200013420CBF01200020704700BF00230360704700BF00687047026842B1914203D17F
:204B40001BE099420ED01A461368002BF9D100230B6002680AB90EE01A461368002BFBD156
:204B6000116070470B68136000230B6000230B600268002AF1D1016070470B680360F3E7ED
:204B800010B404684CB1A14217D0224602E0994208D01A461368002BF9D10C6001605DF82F
:204BA000044B70470C460B6813600023236004680C6001605DF8044B70470B680360F4E7CC
:204BC000026842B18A4203D10BE0994204D01A461368002BF9D170471968116000221A6029
:204BE0007047134612680260F8E700BF00B10068704700BF10B504460021628840680FF0DB
:204C000045F923886288A06802FB03F2BDE8104000210FF03BB900BF30B44588BDB1416837
:204C20000B7863B14A1C002303E01478114601322CB10133AB42F8D1002030BC70470122AE
:204C40000A700288806830BC03FB020070472846F3E700BFF0B44588074682686DB18A422C
:204C60000ED006880023324402E0914209D022460133AB4202EB0604F7D1FF20F0BC7047D7
:204C800000237A68D05C0028F8D00138D0547A68F0BCD05C704700BF83688B4208D8428804
:204CA000008800FB023081422CBF00200120704700207047418849B143680020194413F8CC
:204CC000012B02B901308B42F9D17047084670470023013A0160027143718371704700BF19
:204CE00010B44479827903460079A21A024090420AD01A68012011555A79197902440A40CE
:204D00005A715DF8044B704700205DF8044B70470346807959791A79091A114208D010B439
:204D2000411C1C680A40205C9A715DF8044B70474FF0FF30704700BF08B50448FFF75AFF2A
:204D4000BDE808400248FFF755BF00BF740800206808002038B50F48FFF75EFF044688B10D
:204D60000D48FFF759FF0546206060B100F092FA05F19C01A5F8800005F1820000F08EFB97
:204D8000204638BD38BD21460248FFF763FF284638BD00BF680800207408002010B504465D
:204DA00007482146FFF778FF00B910BD21680548FFF750FF2146BDE810400148FFF74ABF8B
:204DC000680800207408002010B5044609482146FFF762FF00B910BD2468B4F880102046D5
:204DE00000F03CFB04F1820004F19C01BDE8104000F066BB6808002010B50446034821462C
:204E0000FFF74AFF00B1206810BD00BF680800200368B3F880007047006800EBC100343039
:204E2000704700BF036803EB4101B1F882007047F9B1EAB130B4CD684C68521B92FBF4F28D
:204E4000541C18D053B90C68835C012101FA04F423EA04038354084630BC70470B68845C57
:204E6000012101FA03F32343835430BC084670471146084670470021EDE700BF38B50F4D98
:204E8000002818BF05460E48FFF754FE044650B12846211D00F08AFB40B92046FFF7A6FEC5
:204EA00004460028F4D14FF0FF3038BD054B06489B68E41AA41000FB04F038BDEC5F0100D5
:204EC0007816002080080020ABAAAAAA78B179B1C2684368891A91FBF3F14B1C06D0054A0C
:204EE0000368505C184100F00100704700207047084670473C17002010B10368072B0ED906
:204F00000C4A1368072B12D830B40B4D5C1C03608160146045F82300012030BC7047064AC4
:204F200052F823309842EBD18160012070470020704700BF6C1700204C170020F8B50746CF
:204F40000C46184D184E1FB344B3FB687868E41A94FBF0F4611C04EB440421D0AB6803EB11
:204F60008400FFF743FEB0B1AC68001B841006FB04F35A1C0FD07C68FA6804FB032454B194
:204F800038462146FFF7A2FF0028DCD02046F8BD3846FFF72BFE00242046F8BD2046E0E79D
:204FA0000020DEE780080020ABAAAAAA38B505461148FFF7BFFD044668B1104A104B926866
:204FC000841AA41003FB04F4A5B1631C10D06B68EA6803FB042428462146FFF777FF08B18F
:204FE000204638BD28462146BDE83840FFF7A6BF0024F0E72C46EEE7781600208008002071
:20500000ABAAAAAA2DE9F04F6C4D85B0002918BF0D46044628461F469146FFF72FFF431CDA
:20502000064612D05CB36268E36802FB0636002130460EF02BFF2146614832460123FFF784
:20504000F7FE304605B0BDE8F08FDFF888814046FFF7E2FD0646A8B107465A483946FFF7C8
:205060006BFDD8F80820584BB61AB610381D294603FB06F600F096FA0CB1731CD3D162689F
:205080000026D4E7484639460AF084FB00287ED0FFF7F4FE471C4ED0D8F808204B4B00EB51
:2050A000400A12EB8A07195C019744D000293BD1434BC2EB070A02930395019E5546DFF838
:2050C00018B1A24614E084680CB33F4B03FB07F77A1C1BBF4168C2684FF0000901FB072943
:2050E0004946FFF7F3FE01280BD0394B9B4510D05BF8040FAF100028E5D1334B03FB07F775
:20510000F3E74846A047D8F80830019AD51AAF10F3E70199029A00232A48D3555446039DE8
:205120000F46FFF74DFD98E71E54019BC2EB030A234B0293C0E72348FFF7FCFC019030B31C
:205140004FF0000BD946214F1F4E019802E0FFF74DFDF0B1D8F80830C3EB000A4FEAAA0307
:2051600006FB03F3FA5C002AF1D11549CB5C0291DBB1D90748BF01325B10FAD1B9F1000F49
:2051800001D09345E3DDB2B193468146DFE7002657E7B9F1000FFAD0D8F80820084BCDF8E6
:2051A00004900293C2EB090A86E7B9F1000F02D0BBF1000FCBD001907EE700BFEC5F0100B7
:2051C0003C17002078160020ABAAAAAA6816002068170020800800204817002038B5054669
:2051E0000846FFF74BFE85B1431C0CD06C68EB6804FB003428462146FFF768FE002814BF2B
:205200002046002038BD0024F4E72C46F2E700BF70B505460C460023294622460548FFF70B
:2052200007FE06462946224600230348FFF700FE304670BD3C1700206816002003460A4697
:20524000024819460123FFF7F3BD00BF6816002003460A46024819460023FFF7E9BD00BFBE
:205260006816002088B189B1C2684368881A90FBF3F0431C08D0064B00EB40009B6813EB84
:20528000800002D004307047002070470846704780080020F8B50E4D0E4C2A782388134447
:2052A000802B01DD0020F8BD06460B4F39460EF013FD0A4B29781B7870181944C9B23944F7
:2052C00022880EF009FD287823881844F8BD00BFDC2B0020C02B002070170020C22B00201F
:2052E000F0B4114B114F1B783E78114A33441288DBB213449BB21A18802A12DC013B9BB215
:205300001AB2002A08DB0B4C2518A15C013B9BB2A9541AB2511CF8D130443870F0BC0120B2
:2053200070470020F0BC7047C22B0020DC2B0020C02B002070170020084A138883420BDBB5
:2053400010B4074C80B221881B1A13800844208001205DF8044B704700207047C02B002049
:20536000C22B0020014B1880704700BFC02B0020044B054A1B78127804481344DBB2184474
:20538000704700BFC22B0020DC2B0020701700200048704770170020014B1888704700BFB4
:2053A000C02B0020034A044B10781B781844C0B2704700BFDC2B0020C22B0020054A064B13
:2053C00010781B78054A03441088DBB2184480B2704700BFDC2B0020C22B0020C02B0020B4
:2053E0000649074A074B127808781B881044C3F18003C0B2181A80B2704700BFDC2B002010
:20540000C22B0020C02B002038B5094D094C00211A2209480EF03AFD2846214600F0C2F87A
:2054200005F108002146BDE8384000F0BBB800BFF82B0020EC5F0100082C0020044805494B
:20544000054A002303800B801370FFF7DDBF00BFC22B0020C02B0020DC2B0020802928BF29
:20546000802170B50C4606460849094A094D00230B8013702B80FFF7C7FF31462246064809
:205480000EF02AFC2C80204670BD00BFC22B0020DC2B0020C02B00207017002010B50C46ED
:2054A0001A2205490EF018FC2046BDE81040034910220EF011BC00BF082C0020F82B002056
:2054C000034610B50C461A22194605480EF004FC2146BDE81040034810220EF0FDBB00BF38
:2054E000082C0020F82B0020024B23F810100120704700BF082C0020014B33F81000704764
:20550000082C002008B5044B0D3803EBC00000F049F8012008BD00BFF82B0020024B0D388D
:2055200003EBC000704700BFF82B00200148024900F03CB8002C0020EC5F010070B5054684
:205540000E480E46FFF7F6FA044660B1012D0CD01DB963680BB1984770B92046FFF746FB54
:2055600004460028F2D1002070BDA368002BF4D0304698470028F0D070BD00BFF01700205F
:20558000054B10B51B689847044B5B689847BDE81040034B5B681847F44401006868010034
:2055A0007477010008220EF097BB00BF08B508220EF060FBB0FA80F0400908BD08B5084851
:2055C000FEF730FD0748FFF7F1FC40B1037A01465B0803720348FFF7B1FC0028F6D108BD48
:2055E0002C2C00208C08002001460148FFF7F6BD8C08002080B110B50446FBF7BDFD23681B
:20560000C01AB0F5963F05D2207A032894BF0020012010BD002010BD00207047F8B507467B
:2056200014460E4659B3022900D0F8BD34483946FFF7D4FD0546002831D0FBF79DFD2B7A99
:2056400028602344102BA8BF10232B720C342846FFF7D0FFAA88002814BF5A234B2302FB61
:2056600003F24FEAC414A4B214BF0A21192104FB01232448A0FB03235B09AB80F8BD20489A
:205680003946FFF7ABFD054648B1FBF775FD2B7A28602344102BA8BF10232B72D7E7394602
:2056A000174809220023FFF7ADFC05460028BCD0C38813B31BB26FF03B029342A8BF134690
:2056C0006FF058029342B8BF13464FF470625A3392FBF3F39BB2B3F5C07F28BF4FF4C073C6
:2056E000AB80FBF749FD2B7A28602344102BA8BF1023022E2B72AAD1A8E74FF48073EFE7FB
:205700008C0800201F85EB5138B505460420FFF7F3FE294684B21D48FFF760FD80B122B250
:20572000B0F9061002EB82025A23520003FB01221749D31781FB0212C3EB6212C28038BD16
:205740000346294611480922FFF75CFC0028F6D0C480C4B122B26FF03B039A42A8BF1A4604
:205760006FF058018A42B8BF0A464FF4706102F15A0391FBF3F39BB2B3F5C07F28BF4FF4AA
:20578000C073838038BD4FF48073FAE78C0800201F85EB5110B50848FFF708FC044650B1D9
:2057A00021460548FFF734FD21460348FFF7C6FB04460028F4D110BD8C08002010B5002107
:2057C0000548FFF799FBBDE8104004484FF4E131034A0023FEF71ABC8C0800202C2C0020F5
:2057E000BD550000F8B5FBF7C7FC104F06463C4600250D20FFF792FE2146FFF7D7FE1034BA
:2058000020B90135102DF4D10020F8BD0720FFF773FE07EB05152B7B8342F5D1A868301A7D
:20582000B0F5206F8CBF00200120F8BDB4180020F8B5194F00243D460D20FFF76FFE29464C
:20584000FFF7B4FE18BB0134102C05F11005F3D112480F24013C07EB041600E0013C314623
:2058600010220EF039FA3046103E002CF6D10720FFF742FE3873FBF77FFCB8600D20FFF75E
:205880004DFEBDE8F84001460348FFF78BBE002CEDD02846DEE700BFB4180020A41900206B
:2058A000844618B1084611461A466047704700BF032913DD92B110B413889278C3F30B03A7
:2058C0000AB143F400431C0A02210F228370C470017042705DF8044B042070474FF0FF30E2
:2058E000704700BF012906DD2AB100223F2302704370022070474FF0FF30704701290CDD90
:205900005AB193880222C3F30A03A3F5F0439BB2190A03704170104670474FF0FF32FAE7BD
:20592000072916DDAAB1034630B491680625817091681A24090AC170518908201971D17A55
:205940005971117B9971127C1D70DA715C7030BC70474FF0FF307047002A43D0F0B492F882
:205960002E3092F82A5003EB8304043405FB04F4012D04F1010630DC042B2EDCA71C8F421D
:205980002BDA012D857006D01B220670E31C4270F0BC1846704792F82B10C170918D01715E
:2059A000918D8371090A4171002BEDD0014603EB430302EB4303158E0632CD71558D053149
:2059C0002D0ACD70958D0D71958D2D0A4D7192F82E509A428D71EED1D6E74FF0FF3318466F
:2059E000F0BC70474FF0FF331846704730B402B3537C002B0BBF02241A2401251925A142B6
:205A000017DD8370537C6BB1014602F11003283233F8024F02314C701C8893424FEA1424B8
:205A20008C70F5D11C23057043700235284630BC70474FF0FF35F9E7DAB3F8B5B2F84A3044
:205A4000042B33D892F848E0BEF1000F2AD10223012799422ADD04461546002680F802E04D
:205A6000C670067146718671C67106724672B2F84A3002F14C01A372B2F84A300C301B0A66
:205A8000E372B2F84A200EF027F9B5F84A30C82223441E73B5F84A30B81C23445E732770AC
:205AA0006270F8BD03F10C070D33D2E74FF0FF30F8BD4FF0FF3070472DE9F04F85B00190FC
:205AC0001346002A77D04FF0000882F80380002900F0558201296ED9C2464546019EDFF84E
:205AE000ACB30292B146777819F8023BDBF8002043EA07270239032A1FFA87FCCCB24FEA76
:205B0000D7375EDCB8F1010F6CD0C0F08980B8F1020F45D1DBF80020002F00F0AE80CCF3C0
:205B2000C327032ACCF30A0A5FFA87FC00F39481A24500F2B980BCF1090F40F0B580BAF1B0
:205B4000000F00F0B180B2780298BAF1010F80F8482008D0F17AB27A42EA0122042AA0F832
:205B60004A2040F21C816FF00102CAEB02021544002DC0F22B8213D1DBF80020032A05DC07
:205B800056465FFA8AF14FF001080CE0BA49BB4ABB4802F0EBFBBB4802F0E8FB4FF001085E
:205BA00056465FFA8AF1611A11F0FF014E4400F0DA81012996D14FF0FF39484605B0BDE82C
:205BC000F08FAD49AD4AAE48CDF80CC002F0CEFBAD483946424602F0C9FBB8F1010FDDF8D7
:205BE0000CC092D1002F00F0CD81DBF80020CCF30A05032ACCF3C327A44E00F39E80012F3F
:205C000000F0AB800F2F5ED1032A00F3ED80002DD1D1019BC3EB0909484605B0BDE8F08FDD
:205C2000002F40F0C181DBF800200CF07F0A032ACCF3C71700F397807E2F6CD07F2F53D0BD
:205C4000A24500F2D8811E2F40F0D581BAF1020F40F0D181F178B278029B42EA012291B23F
:205C6000D00B98700B05029B4CBF41F47042C2F30B0202211A800E4695E7CCF30627032A3A
:205C80005FFA8CFA5FFA87FC00F3D780A2450BD8BCF11B0F00F01481BCF11C0F00F08A8007
:205CA000BCF11A0F00F04781DBF80030002B82DD7749724A724802F059FB764802F056FB4C
:205CC0004FF0FF3979E7002A7FF775AF70496B4A6B4802F04BFB4FF0FF396F4802F046FB6F
:205CE000484605B0BDE8F08F029BBAF1000F45D1019AC2EB090983F80390DBF80030032B37
:205D00007FF75BAF5C495D4A5D4802F02FFB634802F02CFB51E7BAF1000F40F07C81019B77
:205D2000C3EB0902029BDA70DBF80020032A77DC514656464FF0010835E74F494F4A5048F0
:205D400002F014FB3A465648294602F00FFB012F32687FF457AF032A53DC00210E468A46D5
:205D60004FF002081FE74449444A454802F0FEFA51463A464B4802F0F9FA5DE7DBF800306C
:205D8000002B7FF718AF42493C4A3D4802F0EEFA5146454802F0EAFA4FF0FF390DE702F1D3
:205DA0000C018A457FF4DFAE06F10C014C300DF093FFD8E6BAF1010F00F0DD80BAF1190F5F
:205DC0007FF472AF0299B27830464A7401F1100601F128070279C378023043EA022326F8B5
:205DE000023FBE42F6D1BEE623492548234A02F0BDFA2E48294602F0B9FA002D3FF409AF66
:205E0000D9E61D491D4A1E4802F0B0FA2946284802F0ACFA00210E468A464FF00208C2E647
:205E20001549164A164802F0A1FA224802F09EFA4FF0010851465646B5E60F490F4A1048A6
:205E4000CDF80CC002F092FA3A461B48514602F08DFADDF80CC019E70749084A0848CDF8E8
:205E60000CC002F083FA3A461448514602F07EFADDF80CC05CE600BFF45F0100F85F0100BC
:205E80003C4401000C620100046001005C0700208C5F0100AC61010074610100AC6001004D
:205EA0001861010040600100C060010054610100346101005C60010090610100C061010089
:205EC000BAF1000F3FF4F0AEB278B179002A3FF44AAE012A7FF4E8AE04293FF7E5AE01EB78
:205EE0008107781D82457FF4DFAE0298034680F82A20F27880F82B207079327942EA00220A
:205F00009A85B279184683F82E2000293FF42BAE3744327AF379053643EA02230386727947
:205F20003379063043EA02238385B379BE4280F82E30EED117E6BAF1060F7FF4B5AEB278A7
:205F400002988260F17842EA01228260317942EA01428260717942EA01628260B279027335
:205F6000F2790274FFE5029BB8F1000F3CD0019BC3EB060921E6B278029B5A74F3E589465F
:205F8000D9701AE6DBF800306746002B7FF713AE29492A4A2A4802F0E9F93946294802F098
:205FA000E5F94FF0FF3908E6DBF800306746002B7FF701AE2049214A214802F0D7F9394620
:205FC000214802F0D3F94FF0FF39F6E5DBF80030002B7FF7F0AD1849184A194802F0C6F932
:205FE0001A4802F0C3F9E6E5019AC2EB06095FFA89F1D970E1E5DBF80030002B7FF7DBAD61
:206000000D490E4A0E4802F0B1F9114802F0AEF94FF0FF39D1E5DBF80030002B7FF7CBADA5
:206020000549064A064802F0A1F95146094802F09DF94FF0FF39C0E58C5F0100F85F010018
:206040003C440100F860010024600100DC610100E46001008860010030B591B0FFF788F9D8
:206060000446FFF799F96A460146204600F0AEFB28B30446FFF760F908B30C209DF8101048
:20608000FFF732FA9DF817303BB3BDF81C5000F099F9854217D04FF6FF73BDF81C209A423F
:2060A00011D0344B1B68012B09DD33493348344A02F05CF93348BDF81C1002F057F94FF052
:2060C000FF3011B030BD9DF81700694600F046FA18B969460E20FFF715FA0D2002A9FFF7D7
:2060E00011FA9DF81530072053B1224D4FF6FF71FFF7FAF92B68022B0ADC204611B030BDC9
:206100001C4D9DF81A10FFF7EFF92B68022BF4DD1D491B4A194802F029F91C489DF810108F
:2061200002F024F92B68022BE7DD0D20FFF7F6F9FDF72CFD2B68022BDFDD154802F016F9C3
:206140002B68022BD9DD0E20FFF7E8F9FDF71EFD2B68022BD1DDFFF71FF90546FFF72EF9D1
:206160002A46034621460B4802F000F9204611B030BD00BF5C070020306201003C44010057
:20618000F85F0100386201004C440100546201009476010060620100F8B5054660B3144691
:2061A00052B30C200E46A84700232074A37486B30122E37462750920A84700270223237616
:2061C000A07567740720A847A07600F0FBF8E0830A20A847012816BF03236776637600F07A
:2061E000F1F8A0830B20A847012817D04EB10223E37501232375F8BD0F4B1B68022B10DC86
:20620000F8BD0323E375637E022BF2D000232375F8BD0820A8476675E074CCE70023E37597
:20622000F1E706480649074A02F0A0F8BDE8F840054802F09BB800BF5C0700203C440100DC
:206240004C440100F85F01007062010030B591B0054600F0B7F84FF6FF73984240D040226F
:20626000684600210DF012FE474B1A78002A3BD0002D41D1FFF75AF96A46C1B24348FFF7BD
:206280008BFFFFF753F9002847D0FF238DF800308DF801300D20FFF741F9014602A8FFF722
:2062A00081F9FFF765F80E90FFF776F80F90684600F0B0F9044615B9204611B030BDFFF707
:2062C0000FF8002831D1324B1B68002B08DD31493148324A02F04AF82146314802F046F8CA
:2062E0004FF0FF3011B030BD01221A70FCF77AF92C4B1870002DBDD00720FFF7FDF800287C
:20630000B8D1284C2178002939D089B20720FFF7EBF8237801332370ACE70E20FFF7FEF86B
:2063200001466846FFF73EF9B4E7FFF731F8184D0146684600F0BAF92B68022BBCDD1A49C8
:20634000164A154802F012F818489DF8101002F00DF82B68022BAFDD6846FDF717FC2B68E4
:20636000022BA9DDFFF718F80546FFF727F82A46034621460E4801F0F9FF20469DE7012397
:2063800019462370C2E700BFDE2B0020F95400005C0700208C5F01003C440100F85F0100E5
:2063A000BC620100DD2B00204C440100B0620100606201000120FFF749BF00BF0020FFF73B
:2063C00045BF00BF014B1888704700BFE8090020014B1880704700BFE8090020B8B1037A36
:2063E00030B4022B14D00378022B1DD00379F3B9447A14F0030418BF0124C37913F00303E1
:2064000018BF012301B10C6002B1136030BC7047C579447A037965B1B4B1032D29D1032C4E
:2064200031D0022C16D0D3B100231C46EAE70024E3E70CB9012B23D0002BF5D1023C012C3F
:206440008CBF00240124DDE72BB1032D11D123460024D7E7A3B90DB90123EFE70123022D3C
:20646000ECD0032DF4D1A4F10204B4FA84F46409C8E7022DD5D1002CECD143B12346C1E7CB
:2064800001230024BEE7002BE8D00023E0E72346D4E700BF30B50D460446002183B028461B
:2064A00006220DF0F3FC637DD9075CBF01232B70237E012B23D904F11000694601AAFFF710
:2064C0008DFF009B0BB10223EB70019B0BB102236B70E37D03F00303022B03D0032B0CBFAF
:2064E00008230023AB70637E03F00303022B03D0032B0CBF082300232B7103B030BDE37D76
:206500009A0706D0637E9B0703D0E28BA38B9A4202D000232375CEE701232375CBE700BFC8
:2065200010B5002182B0019178B1044601AA1030FFF754FF019B43B1074AA38B12889A4285
:2065400006D04FF6FF72934202D0002002B010BD012002B010BD00BFE809002002280CBF04
:20656000022308230B4403E013F8012DFF2A03D18B42F9D10120704700207047002844D0E1
:20658000B0B50446637E1746084663B1022B38D004F1080108228B1803E013F8015DFF2D34
:2065A0001AD18B42F9D110B11949FEF7FBFFE37D5BB1022B0CBF02220822A31803E013F8EC
:2065C000011DFF2913D1A342F9D14FB138461049FEF7E8FF0120B0BD082A03D00020B0BD0F
:2065E0000120B0BD0028E2D0FEF7DCFFDFE7082AF4D1002FF4D038462146FEF7D3FF0120E6
:20660000B0BD1A4604F10801C5E70020704700BFEC5F010000B583B06946FFF73BFF9DF8C5
:2066200000309DF801109DF8022002330B449DF8031013449DF804200B449DF80500134451
:20664000184403B05DF804FB70B485784378047805F00102C678150103F0010245EAC2024A
:20666000037904F00704144306F0010244EA421203F0010342EA83130B704479437A857921
:20668000C27904F0010444EA831405F00105037A02F0030244EA450040EA820203F0030378
:2066A00042EA03134B7070BC704700BFF0B50C46074683B06946FFF7EDFE07F110002146C5
:2066C000FFF7C2FF9DF80030012B02BFBB7E0320A3709DF8013018BF0220022B2ED09DF863
:2066E00002E0BEF1000F0ED0034600EB0E02D2B207EB0E0111F8016D5D1CE654EBB29342B7
:20670000F8D17044C0B29DF80330022B20D09DF804E0BEF1000F0FD003460EF1080200EB52
:206720000E063A44F6B212F8015D591CE554CBB2B342F8D17044C0B203B0F0BDBA8B431CA4
:206740002254BA8BDBB2120A0230E254C0B2C6E7FA8B431C2254FA8BDBB2120A0230E2545E
:20676000C0B2D4E72DE9F0470278437884B0C2F3001CC2F3401E02F00709C2F3C008C2F31E
:20678000801403F0010AC3F34007C3F38106C3F3011508469B0901A90A228DF804908DF8FB
:2067A00005808DF806C08DF807E08DF808408DF809A08DF80A708DF80B608DF80C508DF84D
:2067C0000D300DF089FA04B0BDE8F087012950DD2DE9F041144686B00F4603A90546FFF7BC
:2067E000C1FF03A904F110000A220DF075FA9DF81130002B39D0AE1C03A801A902AAFFF7C5
:20680000EDFD9DF81380B8F1000F43D0029B002B34D0727816F8023B03EB0223A383B8F1B8
:20682000020F56D0B8F1030F3BD09DF81580B8F1000F27D0019BF3B1717816F8023B029A72
:2068400003EB01239BB2E383D2B1B8F1020F4AD0B8F1030F31D0701B3B1A8742B8BF002020
:20686000A663E36306B0BDE8F081AB78EE1CA376C2E700207047A38BE383E6E7A383CEE7FB
:20688000A383E2E704F108001C49FEF78BFEA4F81E80E0E720461949FEF784FEA4F81C80B1
:2068A000C3E706F108000346621E13F8011DB34202F8011FF9D10646B7E708363246E31DC4
:2068C00004F10F0012F8011D03F8011F8342F9D1C1E720460949FEF765FE7378237016F89E
:2068E000023B6370A1E704F108000449FEF75AFE7378237216F8023B6372ACE7EC5F0100EA
:2069000010B4064A064C1368206811688B42FAD11B0443EA10405DF8044B70470820094095
